{
  "contractName": "DateExample",
  "abi": [
    {
      "inputs": [],
      "stateMutability": "nonpayable",
      "type": "constructor"
    },
    {
      "inputs": [],
      "name": "startDate",
      "outputs": [
        {
          "internalType": "uint256",
          "name": "",
          "type": "uint256"
        }
      ],
      "stateMutability": "view",
      "type": "function"
    },
    {
      "inputs": [],
      "name": "getCurrentDate",
      "outputs": [
        {
          "internalType": "uint256",
          "name": "",
          "type": "uint256"
        }
      ],
      "stateMutability": "view",
      "type": "function"
    },
    {
      "inputs": [],
      "name": "getDaysSinceStart",
      "outputs": [
        {
          "internalType": "uint256",
          "name": "",
          "type": "uint256"
        }
      ],
      "stateMutability": "view",
      "type": "function"
    },
    {
      "inputs": [
        {
          "internalType": "uint256",
          "name": "_startDate",
          "type": "uint256"
        }
      ],
      "name": "setStartDate",
      "outputs": [],
      "stateMutability": "nonpayable",
      "type": "function"
    }
  ],
  "bytecode": "0x608060405234801561001057600080fd5b504260008190555061029e806100276000396000f3fe608060405234801561001057600080fd5b506004361061004c5760003560e01c80630b97bc861461005157806382d95df51461006f5780639254d7721461008b578063ed424105146100a9575b600080fd5b6100596100c7565b6040516100669190610169565b60405180910390f35b61008960048036038101906100849190610131565b6100cd565b005b6100936100d7565b6040516100a09190610169565b60405180910390f35b6100b16100df565b6040516100be9190610169565b60405180910390f35b60005481565b8060008190555050565b600042905090565b600080600054426100f091906101b5565b90506018603c80836101029190610184565b61010c9190610184565b6101169190610184565b91505090565b60008135905061012b81610251565b92915050565b60006020828403121561014357600080fd5b60006101518482850161011c565b91505092915050565b610163816101e9565b82525050565b600060208201905061017e600083018461015a565b92915050565b600061018f826101e9565b915061019a836101e9565b9250826101aa576101a9610222565b5b828204905092915050565b60006101c0826101e9565b91506101cb836101e9565b9250828210156101de576101dd6101f3565b5b828203905092915050565b6000819050919050565b7f4e487b7100000000000000000000000000000000000000000000000000000000600052601160045260246000fd5b7f4e487b7100000000000000000000000000000000000000000000000000000000600052601260045260246000fd5b61025a816101e9565b811461026557600080fd5b5056fea2646970667358221220b16a051793a4fdaddd6e0e0c916125ea005813eac36bba3650e09ded0e80233364736f6c63430008000033",
  "immutableReferences": {},
  "source": "pragma solidity ^0.8.0;\r\n\r\ncontract Voting {\r\n    struct Candidate {\r\n        uint id;\r\n        string name;\r\n        string party;\r\n        uint voteCount;\r\n    }\r\n\r\n    struct VotingSession {\r\n        address admin;\r\n        uint256 votingStart;\r\n        uint256 votingEnd;\r\n        mapping(uint => Candidate) candidates;\r\n        mapping(address => bool) voters;\r\n        mapping(address => bool) registeredVoters;\r\n        uint countCandidates;\r\n    }\r\n\r\n    mapping(uint => VotingSession) public votingSessions;\r\n    uint public sessionCount;\r\n\r\n    event VoteCast(\r\n        address indexed voter,\r\n        uint indexed sessionID,\r\n        uint indexed candidateID\r\n    );\r\n    event ErrorOccurred(string reason);\r\n    event DatesSet(uint indexed sessionID, uint256 startDate, uint256 endDate);\r\n    event VoterRegistered(uint indexed sessionID, address indexed voter);\r\n    event RegistrationRequested(uint indexed sessionID, address indexed voter);\r\n\r\n    function createSession(\r\n        uint256 _startDate,\r\n        uint256 _endDate,\r\n        string[] memory candidateNames,\r\n        string[] memory candidateParties,\r\n        address[] memory voters\r\n    ) public returns (uint) {\r\n        require(\r\n            _endDate > _startDate && _startDate > block.timestamp,\r\n            \"Invalid dates\"\r\n        );\r\n        require(\r\n            candidateNames.length == candidateParties.length,\r\n            \"Candidates and parties must match\"\r\n        );\r\n\r\n        sessionCount++;\r\n        VotingSession storage session = votingSessions[sessionCount];\r\n        session.admin = msg.sender;\r\n        session.votingStart = _startDate;\r\n        session.votingEnd = _endDate;\r\n\r\n        for (uint i = 0; i < candidateNames.length; i++) {\r\n            _addCandidate(sessionCount, candidateNames[i], candidateParties[i]);\r\n        }\r\n        for (uint i = 0; i < voters.length; i++) {\r\n            session.registeredVoters[voters[i]] = true;\r\n        }\r\n\r\n        emit DatesSet(sessionCount, _startDate, _endDate);\r\n        return sessionCount;\r\n    }\r\n\r\n    function _addCandidate(\r\n        uint sessionID,\r\n        string memory name,\r\n        string memory party\r\n    ) internal {\r\n        VotingSession storage session = votingSessions[sessionID];\r\n        session.countCandidates++;\r\n        session.candidates[session.countCandidates] = Candidate(\r\n            session.countCandidates,\r\n            name,\r\n            party,\r\n            0\r\n        );\r\n    }\r\n\r\n    function vote(uint sessionID, uint candidateID) public {\r\n        VotingSession storage session = votingSessions[sessionID];\r\n\r\n        // emit Debug(\"Current timestamp\", block.timestamp);\r\n        // emit Debug(\"Voting start timestamp\", session.votingStart);\r\n        // emit Debug(\"Voting end timestamp\", session.votingEnd);\r\n        // emit Debug(\"Candidate count\", session.countCandidates);\r\n\r\n        require(\r\n            session.votingStart < block.timestamp,\r\n            \"Voting has not started yet\"\r\n        );\r\n        require(session.votingEnd > block.timestamp, \"Voting has ended\");\r\n        require(\r\n            session.registeredVoters[msg.sender],\r\n            \"You are not registered to vote in this session\"\r\n        );\r\n        require(\r\n            candidateID > 0 && candidateID <= session.countCandidates,\r\n            \"Invalid candidate ID\"\r\n        );\r\n        require(!session.voters[msg.sender], \"You have already voted\");\r\n\r\n        session.voters[msg.sender] = true;\r\n        session.candidates[candidateID].voteCount++;\r\n        emit VoteCast(msg.sender, sessionID, candidateID);\r\n    }\r\n\r\n    function checkVote(uint sessionID) public view returns (bool) {\r\n        return votingSessions[sessionID].voters[msg.sender];\r\n    }\r\n\r\n    function getCountCandidates(uint sessionID) public view returns (uint) {\r\n        return votingSessions[sessionID].countCandidates;\r\n    }\r\n\r\n    function getCandidate(\r\n        uint sessionID,\r\n        uint candidateID\r\n    ) public view returns (uint, string memory, string memory, uint) {\r\n        Candidate storage candidate = votingSessions[sessionID].candidates[\r\n            candidateID\r\n        ];\r\n        return (\r\n            candidate.id,\r\n            candidate.name,\r\n            candidate.party,\r\n            candidate.voteCount\r\n        );\r\n    }\r\n\r\n    function getDates(uint sessionID) public view returns (uint256, uint256) {\r\n        VotingSession storage session = votingSessions[sessionID];\r\n        return (session.votingStart, session.votingEnd);\r\n    }\r\n\r\n    function getCondition(uint sessionID) public view returns (string memory) {\r\n        VotingSession storage session = votingSessions[sessionID];\r\n        if (block.timestamp < session.votingStart) {\r\n            return \"Hasn't started\";\r\n        } else if (block.timestamp > session.votingEnd) {\r\n            return \"Has ended\";\r\n        } else {\r\n            return \"In process\";\r\n        }\r\n    }\r\n}\r\n\r\ncontract DateExample {\r\n    uint public startDate;\r\n\r\n    constructor() public {\r\n        startDate = block.timestamp;\r\n    }\r\n\r\n    function getCurrentDate() public view returns (uint) {\r\n        return block.timestamp;\r\n    }\r\n\r\n    function getDaysSinceStart() public view returns (uint) {\r\n        uint secondsSinceStart = block.timestamp - startDate;\r\n        return secondsSinceStart / 60 / 60 / 24;\r\n    }\r\n\r\n    function setStartDate(uint _startDate) public {\r\n        startDate = _startDate;\r\n    }\r\n}\r\n",
  "sourcePath": "C:\\Users\\user\\OneDrive\\1\\my-dapp\\contracts\\Voting.sol",
  "compiler": {
    "name": "solc",
    "version": "0.8.0+commit.c7dfd78e.Emscripten.clang"
  },
  "schemaVersion": "3.4.16",
  "updatedAt": "2024-06-02T18:11:45.712Z",
  "devdoc": {
    "kind": "dev",
    "methods": {},
    "version": 1
  },
  "userdoc": {
    "kind": "user",
    "methods": {},
    "version": 1
  }
}