{
  "contractName": "Voting",
  "abi": [
    {
      "anonymous": false,
      "inputs": [
        {
          "indexed": true,
          "internalType": "uint256",
          "name": "sessionID",
          "type": "uint256"
        },
        {
          "indexed": false,
          "internalType": "uint256",
          "name": "startDate",
          "type": "uint256"
        },
        {
          "indexed": false,
          "internalType": "uint256",
          "name": "endDate",
          "type": "uint256"
        }
      ],
      "name": "DatesSet",
      "type": "event"
    },
    {
      "anonymous": false,
      "inputs": [
        {
          "indexed": false,
          "internalType": "string",
          "name": "reason",
          "type": "string"
        }
      ],
      "name": "ErrorOccurred",
      "type": "event"
    },
    {
      "anonymous": false,
      "inputs": [
        {
          "indexed": true,
          "internalType": "uint256",
          "name": "sessionID",
          "type": "uint256"
        },
        {
          "indexed": true,
          "internalType": "address",
          "name": "voter",
          "type": "address"
        }
      ],
      "name": "RegistrationRequested",
      "type": "event"
    },
    {
      "anonymous": false,
      "inputs": [
        {
          "indexed": true,
          "internalType": "address",
          "name": "voter",
          "type": "address"
        },
        {
          "indexed": true,
          "internalType": "uint256",
          "name": "sessionID",
          "type": "uint256"
        },
        {
          "indexed": true,
          "internalType": "uint256",
          "name": "candidateID",
          "type": "uint256"
        }
      ],
      "name": "VoteCast",
      "type": "event"
    },
    {
      "anonymous": false,
      "inputs": [
        {
          "indexed": true,
          "internalType": "uint256",
          "name": "sessionID",
          "type": "uint256"
        },
        {
          "indexed": true,
          "internalType": "address",
          "name": "voter",
          "type": "address"
        }
      ],
      "name": "VoterRegistered",
      "type": "event"
    },
    {
      "inputs": [],
      "name": "sessionCount",
      "outputs": [
        {
          "internalType": "uint256",
          "name": "",
          "type": "uint256"
        }
      ],
      "stateMutability": "view",
      "type": "function",
      "constant": true
    },
    {
      "inputs": [
        {
          "internalType": "uint256",
          "name": "",
          "type": "uint256"
        }
      ],
      "name": "votingSessions",
      "outputs": [
        {
          "internalType": "address",
          "name": "admin",
          "type": "address"
        },
        {
          "internalType": "uint256",
          "name": "votingStart",
          "type": "uint256"
        },
        {
          "internalType": "uint256",
          "name": "votingEnd",
          "type": "uint256"
        },
        {
          "internalType": "string",
          "name": "voteName",
          "type": "string"
        },
        {
          "internalType": "uint256",
          "name": "countCandidates",
          "type": "uint256"
        }
      ],
      "stateMutability": "view",
      "type": "function",
      "constant": true
    },
    {
      "inputs": [
        {
          "internalType": "string",
          "name": "_voteName",
          "type": "string"
        },
        {
          "internalType": "uint256",
          "name": "_startDate",
          "type": "uint256"
        },
        {
          "internalType": "uint256",
          "name": "_endDate",
          "type": "uint256"
        },
        {
          "internalType": "string[]",
          "name": "candidateNames",
          "type": "string[]"
        },
        {
          "internalType": "string[]",
          "name": "candidateParties",
          "type": "string[]"
        },
        {
          "internalType": "address[]",
          "name": "voters",
          "type": "address[]"
        }
      ],
      "name": "createSession",
      "outputs": [
        {
          "internalType": "uint256",
          "name": "",
          "type": "uint256"
        }
      ],
      "stateMutability": "nonpayable",
      "type": "function"
    },
    {
      "inputs": [
        {
          "internalType": "uint256",
          "name": "sessionID",
          "type": "uint256"
        },
        {
          "internalType": "uint256",
          "name": "candidateID",
          "type": "uint256"
        }
      ],
      "name": "vote",
      "outputs": [],
      "stateMutability": "nonpayable",
      "type": "function"
    },
    {
      "inputs": [
        {
          "internalType": "uint256",
          "name": "sessionID",
          "type": "uint256"
        }
      ],
      "name": "checkVote",
      "outputs": [
        {
          "internalType": "bool",
          "name": "",
          "type": "bool"
        }
      ],
      "stateMutability": "view",
      "type": "function",
      "constant": true
    },
    {
      "inputs": [
        {
          "internalType": "uint256",
          "name": "sessionID",
          "type": "uint256"
        }
      ],
      "name": "getCountCandidates",
      "outputs": [
        {
          "internalType": "uint256",
          "name": "",
          "type": "uint256"
        }
      ],
      "stateMutability": "view",
      "type": "function",
      "constant": true
    },
    {
      "inputs": [
        {
          "internalType": "uint256",
          "name": "sessionID",
          "type": "uint256"
        },
        {
          "internalType": "uint256",
          "name": "candidateID",
          "type": "uint256"
        }
      ],
      "name": "getCandidate",
      "outputs": [
        {
          "internalType": "uint256",
          "name": "",
          "type": "uint256"
        },
        {
          "internalType": "string",
          "name": "",
          "type": "string"
        },
        {
          "internalType": "string",
          "name": "",
          "type": "string"
        },
        {
          "internalType": "uint256",
          "name": "",
          "type": "uint256"
        }
      ],
      "stateMutability": "view",
      "type": "function",
      "constant": true
    },
    {
      "inputs": [
        {
          "internalType": "uint256",
          "name": "sessionID",
          "type": "uint256"
        }
      ],
      "name": "getDates",
      "outputs": [
        {
          "internalType": "uint256",
          "name": "",
          "type": "uint256"
        },
        {
          "internalType": "uint256",
          "name": "",
          "type": "uint256"
        }
      ],
      "stateMutability": "view",
      "type": "function",
      "constant": true
    },
    {
      "inputs": [
        {
          "internalType": "uint256",
          "name": "sessionID",
          "type": "uint256"
        }
      ],
      "name": "getCondition",
      "outputs": [
        {
          "internalType": "string",
          "name": "",
          "type": "string"
        }
      ],
      "stateMutability": "view",
      "type": "function",
      "constant": true
    },
    {
      "inputs": [
        {
          "internalType": "uint256",
          "name": "sessionID",
          "type": "uint256"
        }
      ],
      "name": "getAdmin",
      "outputs": [
        {
          "internalType": "address",
          "name": "",
          "type": "address"
        }
      ],
      "stateMutability": "view",
      "type": "function",
      "constant": true
    },
    {
      "inputs": [
        {
          "internalType": "uint256",
          "name": "sessionID",
          "type": "uint256"
        }
      ],
      "name": "getSessionName",
      "outputs": [
        {
          "internalType": "string",
          "name": "",
          "type": "string"
        }
      ],
      "stateMutability": "view",
      "type": "function",
      "constant": true
    },
    {
      "inputs": [],
      "name": "getCurrentDate",
      "outputs": [
        {
          "internalType": "uint256",
          "name": "",
          "type": "uint256"
        }
      ],
      "stateMutability": "view",
      "type": "function",
      "constant": true
    }
  ],
  "bytecode": "0x608060405234801561001057600080fd5b5061194c806100206000396000f3fe608060405234801561001057600080fd5b50600436106100b45760003560e01c80637614ab5c116100715780637614ab5c146101ce5780637bf212f8146101fe5780639254d7721461022e578063a98d5fc81461024c578063b384abef1461027d578063e2f63deb14610299576100b4565b80630fdba81d146100b9578063111fd88b146100e95780631186eb7c146101195780634bd464481461014d5780635982313e1461018057806373cd8336146101b0575b600080fd5b6100d360048036038101906100ce9190611170565b6102c9565b6040516100e091906114d7565b60405180910390f35b61010360048036038101906100fe9190611170565b610370565b6040516101109190611447565b60405180910390f35b610133600480360381019061012e9190611170565b6103af565b604051610144959493929190611462565b60405180910390f35b61016760048036038101906101629190611199565b61048d565b60405161017794939291906115f4565b60405180910390f35b61019a60048036038101906101959190611087565b6105f9565b6040516101a791906115d9565b60405180910390f35b6101b86108dd565b6040516101c591906115d9565b60405180910390f35b6101e860048036038101906101e39190611170565b6108e3565b6040516101f591906115d9565b60405180910390f35b61021860048036038101906102139190611170565b610902565b60405161022591906114d7565b60405180910390f35b6102366109ed565b60405161024391906115d9565b60405180910390f35b61026660048036038101906102619190611170565b6109f5565b604051610274929190611647565b60405180910390f35b61029760048036038101906102929190611199565b610a22565b005b6102b360048036038101906102ae9190611170565b610d06565b6040516102c091906114bc565b60405180910390f35b606060008083815260200190815260200160002060030180546102eb906117cf565b80601f0160208091040260200160405190810160405280929190818152602001828054610317906117cf565b80156103645780601f1061033957610100808354040283529160200191610364565b820191906000526020600020905b81548152906001019060200180831161034757829003601f168201915b50505050509050919050565b600080600083815260200190815260200160002060000160009054906101000a900473ffffffffffffffffffffffffffffffffffffffff169050919050565b60006020528060005260406000206000915090508060000160009054906101000a900473ffffffffffffffffffffffffffffffffffffffff1690806001015490806002015490806003018054610404906117cf565b80601f0160208091040260200160405190810160405280929190818152602001828054610430906117cf565b801561047d5780601f106104525761010080835404028352916020019161047d565b820191906000526020600020905b81548152906001019060200180831161046057829003601f168201915b5050505050908060070154905085565b6000606080600080600080888152602001908152602001600020600401600087815260200190815260200160002090508060000154816001018260020183600301548280546104db906117cf565b80601f0160208091040260200160405190810160405280929190818152602001828054610507906117cf565b80156105545780601f1061052957610100808354040283529160200191610554565b820191906000526020600020905b81548152906001019060200180831161053757829003601f168201915b50505050509250818054610567906117cf565b80601f0160208091040260200160405190810160405280929190818152602001828054610593906117cf565b80156105e05780601f106105b5576101008083540402835291602001916105e0565b820191906000526020600020905b8154815290600101906020018083116105c357829003601f168201915b5050505050915094509450945094505092959194509250565b6000858511801561060957504286115b610648576040517f08c379a000000000000000000000000000000000000000000000000000000000815260040161063f90611559565b60405180910390fd5b825184511461068c576040517f08c379a000000000000000000000000000000000000000000000000000000000815260040161068390611599565b60405180910390fd5b6001600081548092919061069f90611801565b9190505550600080600060015481526020019081526020016000209050878160030190805190602001906106d4929190610e35565b50338160000160006101000a81548173ffffffffffffffffffffffffffffffffffffffff021916908373ffffffffffffffffffffffffffffffffffffffff16021790555086816001018190555085816002018190555060005b85518110156107d6576107c3600154878381518110610775577f4e487b7100000000000000000000000000000000000000000000000000000000600052603260045260246000fd5b60200260200101518784815181106107b6577f4e487b7100000000000000000000000000000000000000000000000000000000600052603260045260246000fd5b6020026020010151610d6f565b80806107ce90611801565b91505061072d565b5060005b8351811015610890576001826006016000868481518110610824577f4e487b7100000000000000000000000000000000000000000000000000000000600052603260045260246000fd5b602002602001015173ffffffffffffffffffffffffffffffffffffffff1673ffffffffffffffffffffffffffffffffffffffff16815260200190815260200160002060006101000a81548160ff021916908315150217905550808061088890611801565b9150506107da565b506001547f194647b0a7eaca32a0867d223a698d74fb9d1a0030cd763e7278cd65e01a9de388886040516108c5929190611647565b60405180910390a26001549150509695505050505050565b60015481565b6000806000838152602001908152602001600020600701549050919050565b6060600080600084815260200190815260200160002090508060010154421015610964576040518060400160405280600e81526020017f4861736e277420737461727465640000000000000000000000000000000000008152509150506109e8565b80600201544211156109ae576040518060400160405280600981526020017f48617320656e64656400000000000000000000000000000000000000000000008152509150506109e8565b6040518060400160405280600a81526020017f496e2070726f63657373000000000000000000000000000000000000000000008152509150505b919050565b600042905090565b60008060008060008581526020019081526020016000209050806001015481600201549250925050915091565b6000806000848152602001908152602001600020905042816001015410610a7e576040517f08c379a0000000000000000000000000000000000000000000000000000000008152600401610a75906114f9565b60405180910390fd5b42816002015411610ac4576040517f08c379a0000000000000000000000000000000000000000000000000000000008152600401610abb90611519565b60405180910390fd5b8060060160003373ffffffffffffffffffffffffffffffffffffffff1673ffffffffffffffffffffffffffffffffffffffff16815260200190815260200160002060009054906101000a900460ff16610b52576040517f08c379a0000000000000000000000000000000000000000000000000000000008152600401610b4990611539565b60405180910390fd5b600082118015610b66575080600701548211155b610ba5576040517f08c379a0000000000000000000000000000000000000000000000000000000008152600401610b9c90611579565b60405180910390fd5b8060050160003373ffffffffffffffffffffffffffffffffffffffff1673ffffffffffffffffffffffffffffffffffffffff16815260200190815260200160002060009054906101000a900460ff1615610c34576040517f08c379a0000000000000000000000000000000000000000000000000000000008152600401610c2b906115b9565b60405180910390fd5b60018160050160003373ffffffffffffffffffffffffffffffffffffffff1673ffffffffffffffffffffffffffffffffffffffff16815260200190815260200160002060006101000a81548160ff0219169083151502179055508060040160008381526020019081526020016000206003016000815480929190610cb790611801565b919050555081833373ffffffffffffffffffffffffffffffffffffffff167fb4cfecf70861b7b150d8337780d34fb4cbc2114b5fb1fe51a5c5fca1849f727460405160405180910390a4505050565b600080600083815260200190815260200160002060050160003373ffffffffffffffffffffffffffffffffffffffff1673ffffffffffffffffffffffffffffffffffffffff16815260200190815260200160002060009054906101000a900460ff169050919050565b60008060008581526020019081526020016000209050806007016000815480929190610d9a90611801565b9190505550604051806080016040528082600701548152602001848152602001838152602001600081525081600401600083600701548152602001908152602001600020600082015181600001556020820151816001019080519060200190610e04929190610e35565b506040820151816002019080519060200190610e21929190610e35565b506060820151816003015590505050505050565b828054610e41906117cf565b90600052602060002090601f016020900481019282610e635760008555610eaa565b82601f10610e7c57805160ff1916838001178555610eaa565b82800160010185558215610eaa579182015b82811115610ea9578251825591602001919060010190610e8e565b5b509050610eb79190610ebb565b5090565b5b80821115610ed4576000816000905550600101610ebc565b5090565b6000610eeb610ee6846116a1565b611670565b90508083825260208201905082856020860282011115610f0a57600080fd5b60005b85811015610f3a5781610f208882610fdf565b845260208401935060208301925050600181019050610f0d565b5050509392505050565b6000610f57610f52846116cd565b611670565b9050808382526020820190508260005b85811015610f975781358501610f7d8882611048565b845260208401935060208301925050600181019050610f67565b5050509392505050565b6000610fb4610faf846116f9565b611670565b905082815260208101848484011115610fcc57600080fd5b610fd784828561178d565b509392505050565b600081359050610fee816118e8565b92915050565b600082601f83011261100557600080fd5b8135611015848260208601610ed8565b91505092915050565b600082601f83011261102f57600080fd5b813561103f848260208601610f44565b91505092915050565b600082601f83011261105957600080fd5b8135611069848260208601610fa1565b91505092915050565b600081359050611081816118ff565b92915050565b60008060008060008060c087890312156110a057600080fd5b600087013567ffffffffffffffff8111156110ba57600080fd5b6110c689828a01611048565b96505060206110d789828a01611072565b95505060406110e889828a01611072565b945050606087013567ffffffffffffffff81111561110557600080fd5b61111189828a0161101e565b935050608087013567ffffffffffffffff81111561112e57600080fd5b61113a89828a0161101e565b92505060a087013567ffffffffffffffff81111561115757600080fd5b61116389828a01610ff4565b9150509295509295509295565b60006020828403121561118257600080fd5b600061119084828501611072565b91505092915050565b600080604083850312156111ac57600080fd5b60006111ba85828601611072565b92505060206111cb85828601611072565b9150509250929050565b6111de81611745565b82525050565b6111ed81611757565b82525050565b60006111fe82611729565b6112088185611734565b935061121881856020860161179c565b611221816118d7565b840191505092915050565b6000611239601a83611734565b91507f566f74696e6720686173206e6f742073746172746564207965740000000000006000830152602082019050919050565b6000611279601083611734565b91507f566f74696e672068617320656e646564000000000000000000000000000000006000830152602082019050919050565b60006112b9602e83611734565b91507f596f7520617265206e6f74207265676973746572656420746f20766f7465206960008301527f6e20746869732073657373696f6e0000000000000000000000000000000000006020830152604082019050919050565b600061131f600d83611734565b91507f496e76616c6964206461746573000000000000000000000000000000000000006000830152602082019050919050565b600061135f601483611734565b91507f496e76616c69642063616e6469646174652049440000000000000000000000006000830152602082019050919050565b600061139f602183611734565b91507f43616e6469646174657320616e642070617274696573206d757374206d61746360008301527f68000000000000000000000000000000000000000000000000000000000000006020830152604082019050919050565b6000611405601683611734565b91507f596f75206861766520616c726561647920766f746564000000000000000000006000830152602082019050919050565b61144181611783565b82525050565b600060208201905061145c60008301846111d5565b92915050565b600060a08201905061147760008301886111d5565b6114846020830187611438565b6114916040830186611438565b81810360608301526114a381856111f3565b90506114b26080830184611438565b9695505050505050565b60006020820190506114d160008301846111e4565b92915050565b600060208201905081810360008301526114f181846111f3565b905092915050565b600060208201905081810360008301526115128161122c565b9050919050565b600060208201905081810360008301526115328161126c565b9050919050565b60006020820190508181036000830152611552816112ac565b9050919050565b6000602082019050818103600083015261157281611312565b9050919050565b6000602082019050818103600083015261159281611352565b9050919050565b600060208201905081810360008301526115b281611392565b9050919050565b600060208201905081810360008301526115d2816113f8565b9050919050565b60006020820190506115ee6000830184611438565b92915050565b60006080820190506116096000830187611438565b818103602083015261161b81866111f3565b9050818103604083015261162f81856111f3565b905061163e6060830184611438565b95945050505050565b600060408201905061165c6000830185611438565b6116696020830184611438565b9392505050565b6000604051905081810181811067ffffffffffffffff82111715611697576116966118a8565b5b8060405250919050565b600067ffffffffffffffff8211156116bc576116bb6118a8565b5b602082029050602081019050919050565b600067ffffffffffffffff8211156116e8576116e76118a8565b5b602082029050602081019050919050565b600067ffffffffffffffff821115611714576117136118a8565b5b601f19601f8301169050602081019050919050565b600081519050919050565b600082825260208201905092915050565b600061175082611763565b9050919050565b60008115159050919050565b600073ffffffffffffffffffffffffffffffffffffffff82169050919050565b6000819050919050565b82818337600083830152505050565b60005b838110156117ba57808201518184015260208101905061179f565b838111156117c9576000848401525b50505050565b600060028204905060018216806117e757607f821691505b602082108114156117fb576117fa611879565b5b50919050565b600061180c82611783565b91507fffffffffffffffffffffffffffffffffffffffffffffffffffffffffffffffff82141561183f5761183e61184a565b5b600182019050919050565b7f4e487b7100000000000000000000000000000000000000000000000000000000600052601160045260246000fd5b7f4e487b7100000000000000000000000000000000000000000000000000000000600052602260045260246000fd5b7f4e487b7100000000000000000000000000000000000000000000000000000000600052604160045260246000fd5b6000601f19601f8301169050919050565b6118f181611745565b81146118fc57600080fd5b50565b61190881611783565b811461191357600080fd5b5056fea26469706673582212207a9bbdee6db71f77c7211bb5515e8a2c61234a5782e4ce0285d0d7d40b015aae64736f6c63430008000033",
  "immutableReferences": {},
  "source": "pragma solidity ^0.8.0;\r\n\r\ncontract Voting {\r\n    struct Candidate {\r\n        uint id;\r\n        string name;\r\n        string party;\r\n        uint voteCount;\r\n    }\r\n\r\n    struct VotingSession {\r\n        address admin;\r\n        uint256 votingStart;\r\n        uint256 votingEnd;\r\n        string voteName;\r\n        mapping(uint => Candidate) candidates;\r\n        mapping(address => bool) voters;\r\n        mapping(address => bool) registeredVoters;\r\n        uint countCandidates;\r\n    }\r\n\r\n    mapping(uint => VotingSession) public votingSessions;\r\n    uint public sessionCount;\r\n\r\n    event VoteCast(\r\n        address indexed voter,\r\n        uint indexed sessionID,\r\n        uint indexed candidateID\r\n    );\r\n    event ErrorOccurred(string reason);\r\n    event DatesSet(uint indexed sessionID, uint256 startDate, uint256 endDate);\r\n    event VoterRegistered(uint indexed sessionID, address indexed voter);\r\n    event RegistrationRequested(uint indexed sessionID, address indexed voter);\r\n\r\n    function createSession(\r\n        string memory _voteName,\r\n        uint256 _startDate,\r\n        uint256 _endDate,\r\n        string[] memory candidateNames,\r\n        string[] memory candidateParties,\r\n        address[] memory voters\r\n    ) public returns (uint) {\r\n        require(\r\n            _endDate > _startDate && _startDate > block.timestamp,\r\n            \"Invalid dates\"\r\n        );\r\n        require(\r\n            candidateNames.length == candidateParties.length,\r\n            \"Candidates and parties must match\"\r\n        );\r\n\r\n        sessionCount++;\r\n        VotingSession storage session = votingSessions[sessionCount];\r\n        session.voteName = _voteName;\r\n        session.admin = msg.sender;\r\n        session.votingStart = _startDate;\r\n        session.votingEnd = _endDate;\r\n\r\n        for (uint i = 0; i < candidateNames.length; i++) {\r\n            _addCandidate(sessionCount, candidateNames[i], candidateParties[i]);\r\n        }\r\n        for (uint i = 0; i < voters.length; i++) {\r\n            session.registeredVoters[voters[i]] = true;\r\n        }\r\n\r\n        emit DatesSet(sessionCount, _startDate, _endDate);\r\n        return sessionCount;\r\n    }\r\n\r\n    function _addCandidate(\r\n        uint sessionID,\r\n        string memory name,\r\n        string memory party\r\n    ) internal {\r\n        VotingSession storage session = votingSessions[sessionID];\r\n        session.countCandidates++;\r\n        session.candidates[session.countCandidates] = Candidate(\r\n            session.countCandidates,\r\n            name,\r\n            party,\r\n            0\r\n        );\r\n    }\r\n\r\n    function vote(uint sessionID, uint candidateID) public {\r\n        VotingSession storage session = votingSessions[sessionID];\r\n\r\n        require(\r\n            session.votingStart < block.timestamp,\r\n            \"Voting has not started yet\"\r\n        );\r\n        require(session.votingEnd > block.timestamp, \"Voting has ended\");\r\n        require(\r\n            session.registeredVoters[msg.sender],\r\n            \"You are not registered to vote in this session\"\r\n        );\r\n        require(\r\n            candidateID > 0 && candidateID <= session.countCandidates,\r\n            \"Invalid candidate ID\"\r\n        );\r\n        require(!session.voters[msg.sender], \"You have already voted\");\r\n\r\n        session.voters[msg.sender] = true;\r\n        session.candidates[candidateID].voteCount++;\r\n        emit VoteCast(msg.sender, sessionID, candidateID);\r\n    }\r\n\r\n    function checkVote(uint sessionID) public view returns (bool) {\r\n        return votingSessions[sessionID].voters[msg.sender];\r\n    }\r\n\r\n    function getCountCandidates(uint sessionID) public view returns (uint) {\r\n        return votingSessions[sessionID].countCandidates;\r\n    }\r\n\r\n    function getCandidate(\r\n        uint sessionID,\r\n        uint candidateID\r\n    ) public view returns (uint, string memory, string memory, uint) {\r\n        Candidate storage candidate = votingSessions[sessionID].candidates[\r\n            candidateID\r\n        ];\r\n        return (\r\n            candidate.id,\r\n            candidate.name,\r\n            candidate.party,\r\n            candidate.voteCount\r\n        );\r\n    }\r\n\r\n    function getDates(uint sessionID) public view returns (uint256, uint256) {\r\n        VotingSession storage session = votingSessions[sessionID];\r\n        return (session.votingStart, session.votingEnd);\r\n    }\r\n\r\n    function getCondition(uint sessionID) public view returns (string memory) {\r\n        VotingSession storage session = votingSessions[sessionID];\r\n        if (block.timestamp < session.votingStart) {\r\n            return \"Hasn't started\";\r\n        } else if (block.timestamp > session.votingEnd) {\r\n            return \"Has ended\";\r\n        } else {\r\n            return \"In process\";\r\n        }\r\n    }\r\n\r\n    function getAdmin(uint sessionID) public view returns (address) {\r\n        return votingSessions[sessionID].admin;\r\n    }\r\n\r\n    function getSessionName(uint sessionID) public view returns (string memory) {\r\n        return votingSessions[sessionID].voteName;\r\n    }\r\n\r\n    function getCurrentDate() public view returns (uint256) {\r\n        return block.timestamp;\r\n    }\r\n}",
  "sourcePath": "C:\\Users\\Admin\\Desktop\\BlockChainVoting\\my-dapp\\contracts\\Voting.sol",
  "compiler": {
    "name": "solc",
    "version": "0.8.0+commit.c7dfd78e.Emscripten.clang"
  },
  "schemaVersion": "3.4.16",
  "updatedAt": "2024-06-03T08:39:45.185Z",
  "networkType": "ethereum",
  "devdoc": {
    "kind": "dev",
    "methods": {},
    "version": 1
  },
  "userdoc": {
    "kind": "user",
    "methods": {},
    "version": 1
  }
}