{
  "contractName": "Voting",
  "abi": [
    {
      "anonymous": false,
      "inputs": [
        {
          "indexed": true,
          "internalType": "uint256",
          "name": "sessionID",
          "type": "uint256"
        },
        {
          "indexed": false,
          "internalType": "uint256",
          "name": "startDate",
          "type": "uint256"
        },
        {
          "indexed": false,
          "internalType": "uint256",
          "name": "endDate",
          "type": "uint256"
        }
      ],
      "name": "DatesSet",
      "type": "event"
    },
    {
      "anonymous": false,
      "inputs": [
        {
          "indexed": false,
          "internalType": "string",
          "name": "reason",
          "type": "string"
        }
      ],
      "name": "ErrorOccurred",
      "type": "event"
    },
    {
      "anonymous": false,
      "inputs": [
        {
          "indexed": true,
          "internalType": "uint256",
          "name": "sessionID",
          "type": "uint256"
        },
        {
          "indexed": true,
          "internalType": "address",
          "name": "voter",
          "type": "address"
        }
      ],
      "name": "RegistrationRequested",
      "type": "event"
    },
    {
      "anonymous": false,
      "inputs": [
        {
          "indexed": true,
          "internalType": "address",
          "name": "voter",
          "type": "address"
        },
        {
          "indexed": true,
          "internalType": "uint256",
          "name": "sessionID",
          "type": "uint256"
        },
        {
          "indexed": true,
          "internalType": "uint256",
          "name": "candidateID",
          "type": "uint256"
        }
      ],
      "name": "VoteCast",
      "type": "event"
    },
    {
      "anonymous": false,
      "inputs": [
        {
          "indexed": true,
          "internalType": "uint256",
          "name": "sessionID",
          "type": "uint256"
        },
        {
          "indexed": true,
          "internalType": "address",
          "name": "voter",
          "type": "address"
        }
      ],
      "name": "VoterRegistered",
      "type": "event"
    },
    {
      "inputs": [],
      "name": "sessionCount",
      "outputs": [
        {
          "internalType": "uint256",
          "name": "",
          "type": "uint256"
        }
      ],
      "stateMutability": "view",
      "type": "function",
      "constant": true
    },
    {
      "inputs": [
        {
          "internalType": "uint256",
          "name": "",
          "type": "uint256"
        }
      ],
      "name": "votingSessions",
      "outputs": [
        {
          "internalType": "address",
          "name": "admin",
          "type": "address"
        },
        {
          "internalType": "uint256",
          "name": "votingStart",
          "type": "uint256"
        },
        {
          "internalType": "uint256",
          "name": "votingEnd",
          "type": "uint256"
        },
        {
          "internalType": "uint256",
          "name": "countCandidates",
          "type": "uint256"
        }
      ],
      "stateMutability": "view",
      "type": "function",
      "constant": true
    },
    {
      "inputs": [
        {
          "internalType": "uint256",
          "name": "_startDate",
          "type": "uint256"
        },
        {
          "internalType": "uint256",
          "name": "_endDate",
          "type": "uint256"
        },
        {
          "internalType": "string[]",
          "name": "candidateNames",
          "type": "string[]"
        },
        {
          "internalType": "string[]",
          "name": "candidateParties",
          "type": "string[]"
        },
        {
          "internalType": "address[]",
          "name": "voters",
          "type": "address[]"
        }
      ],
      "name": "createSession",
      "outputs": [
        {
          "internalType": "uint256",
          "name": "",
          "type": "uint256"
        }
      ],
      "stateMutability": "nonpayable",
      "type": "function"
    },
    {
      "inputs": [
        {
          "internalType": "uint256",
          "name": "sessionID",
          "type": "uint256"
        },
        {
          "internalType": "uint256",
          "name": "candidateID",
          "type": "uint256"
        }
      ],
      "name": "vote",
      "outputs": [],
      "stateMutability": "nonpayable",
      "type": "function"
    },
    {
      "inputs": [
        {
          "internalType": "uint256",
          "name": "sessionID",
          "type": "uint256"
        }
      ],
      "name": "checkVote",
      "outputs": [
        {
          "internalType": "bool",
          "name": "",
          "type": "bool"
        }
      ],
      "stateMutability": "view",
      "type": "function",
      "constant": true
    },
    {
      "inputs": [
        {
          "internalType": "uint256",
          "name": "sessionID",
          "type": "uint256"
        }
      ],
      "name": "getCountCandidates",
      "outputs": [
        {
          "internalType": "uint256",
          "name": "",
          "type": "uint256"
        }
      ],
      "stateMutability": "view",
      "type": "function",
      "constant": true
    },
    {
      "inputs": [
        {
          "internalType": "uint256",
          "name": "sessionID",
          "type": "uint256"
        },
        {
          "internalType": "uint256",
          "name": "candidateID",
          "type": "uint256"
        }
      ],
      "name": "getCandidate",
      "outputs": [
        {
          "internalType": "uint256",
          "name": "",
          "type": "uint256"
        },
        {
          "internalType": "string",
          "name": "",
          "type": "string"
        },
        {
          "internalType": "string",
          "name": "",
          "type": "string"
        },
        {
          "internalType": "uint256",
          "name": "",
          "type": "uint256"
        }
      ],
      "stateMutability": "view",
      "type": "function",
      "constant": true
    },
    {
      "inputs": [
        {
          "internalType": "uint256",
          "name": "sessionID",
          "type": "uint256"
        }
      ],
      "name": "getDates",
      "outputs": [
        {
          "internalType": "uint256",
          "name": "",
          "type": "uint256"
        },
        {
          "internalType": "uint256",
          "name": "",
          "type": "uint256"
        }
      ],
      "stateMutability": "view",
      "type": "function",
      "constant": true
    },
    {
      "inputs": [
        {
          "internalType": "uint256",
          "name": "sessionID",
          "type": "uint256"
        }
      ],
      "name": "getCondition",
      "outputs": [
        {
          "internalType": "string",
          "name": "",
          "type": "string"
        }
      ],
      "stateMutability": "view",
      "type": "function",
      "constant": true
    },
    {
      "inputs": [
        {
          "internalType": "uint256",
          "name": "sessionID",
          "type": "uint256"
        }
      ],
      "name": "getAdmin",
      "outputs": [
        {
          "internalType": "address",
          "name": "",
          "type": "address"
        }
      ],
      "stateMutability": "view",
      "type": "function",
      "constant": true
    }
  ],
  "bytecode": "0x608060405234801561001057600080fd5b50611751806100206000396000f3fe608060405234801561001057600080fd5b506004361061009e5760003560e01c80637bf212f8116100665780637bf212f814610187578063a98d5fc8146101b7578063b384abef146101e8578063e2f63deb14610204578063f7ef0e64146102345761009e565b8063111fd88b146100a35780631186eb7c146100d35780634bd464481461010657806373cd8336146101395780637614ab5c14610157575b600080fd5b6100bd60048036038101906100b89190610ecb565b610264565b6040516100ca9190611261565b60405180910390f35b6100ed60048036038101906100e89190610ecb565b6102a3565b6040516100fd949392919061127c565b60405180910390f35b610120600480360381019061011b9190610ef4565b6102f3565b60405161013094939291906113f9565b60405180910390f35b61014161045f565b60405161014e91906113de565b60405180910390f35b610171600480360381019061016c9190610ecb565b610465565b60405161017e91906113de565b60405180910390f35b6101a1600480360381019061019c9190610ecb565b610484565b6040516101ae91906112dc565b60405180910390f35b6101d160048036038101906101cc9190610ecb565b61056f565b6040516101df92919061144c565b60405180910390f35b61020260048036038101906101fd9190610ef4565b61059c565b005b61021e60048036038101906102199190610ecb565b610880565b60405161022b91906112c1565b60405180910390f35b61024e60048036038101906102499190610f30565b6108e9565b60405161025b91906113de565b60405180910390f35b600080600083815260200190815260200160002060000160009054906101000a900473ffffffffffffffffffffffffffffffffffffffff169050919050565b60006020528060005260406000206000915090508060000160009054906101000a900473ffffffffffffffffffffffffffffffffffffffff16908060010154908060020154908060060154905084565b600060608060008060008088815260200190815260200160002060030160008781526020019081526020016000209050806000015481600101826002018360030154828054610341906115d4565b80601f016020809104026020016040519081016040528092919081815260200182805461036d906115d4565b80156103ba5780601f1061038f576101008083540402835291602001916103ba565b820191906000526020600020905b81548152906001019060200180831161039d57829003601f168201915b505050505092508180546103cd906115d4565b80601f01602080910402602001604051908101604052809291908181526020018280546103f9906115d4565b80156104465780601f1061041b57610100808354040283529160200191610446565b820191906000526020600020905b81548152906001019060200180831161042957829003601f168201915b5050505050915094509450945094505092959194509250565b60015481565b6000806000838152602001908152602001600020600601549050919050565b60606000806000848152602001908152602001600020905080600101544210156104e6576040518060400160405280600e81526020017f4861736e2774207374617274656400000000000000000000000000000000000081525091505061056a565b8060020154421115610530576040518060400160405280600981526020017f48617320656e646564000000000000000000000000000000000000000000000081525091505061056a565b6040518060400160405280600a81526020017f496e2070726f63657373000000000000000000000000000000000000000000008152509150505b919050565b60008060008060008581526020019081526020016000209050806001015481600201549250925050915091565b60008060008481526020019081526020016000209050428160010154106105f8576040517f08c379a00000000000000000000000000000000000000000000000000000000081526004016105ef906112fe565b60405180910390fd5b4281600201541161063e576040517f08c379a00000000000000000000000000000000000000000000000000000000081526004016106359061131e565b60405180910390fd5b8060050160003373ffffffffffffffffffffffffffffffffffffffff1673ffffffffffffffffffffffffffffffffffffffff16815260200190815260200160002060009054906101000a900460ff166106cc576040517f08c379a00000000000000000000000000000000000000000000000000000000081526004016106c39061133e565b60405180910390fd5b6000821180156106e0575080600601548211155b61071f576040517f08c379a00000000000000000000000000000000000000000000000000000000081526004016107169061137e565b60405180910390fd5b8060040160003373ffffffffffffffffffffffffffffffffffffffff1673ffffffffffffffffffffffffffffffffffffffff16815260200190815260200160002060009054906101000a900460ff16156107ae576040517f08c379a00000000000000000000000000000000000000000000000000000000081526004016107a5906113be565b60405180910390fd5b60018160040160003373ffffffffffffffffffffffffffffffffffffffff1673ffffffffffffffffffffffffffffffffffffffff16815260200190815260200160002060006101000a81548160ff021916908315150217905550806003016000838152602001908152602001600020600301600081548092919061083190611606565b919050555081833373ffffffffffffffffffffffffffffffffffffffff167fb4cfecf70861b7b150d8337780d34fb4cbc2114b5fb1fe51a5c5fca1849f727460405160405180910390a4505050565b600080600083815260200190815260200160002060040160003373ffffffffffffffffffffffffffffffffffffffff1673ffffffffffffffffffffffffffffffffffffffff16815260200190815260200160002060009054906101000a900460ff169050919050565b600085851180156108f957504286115b610938576040517f08c379a000000000000000000000000000000000000000000000000000000000815260040161092f9061135e565b60405180910390fd5b825184511461097c576040517f08c379a00000000000000000000000000000000000000000000000000000000081526004016109739061139e565b60405180910390fd5b6001600081548092919061098f90611606565b9190505550600080600060015481526020019081526020016000209050338160000160006101000a81548173ffffffffffffffffffffffffffffffffffffffff021916908373ffffffffffffffffffffffffffffffffffffffff16021790555086816001018190555085816002018190555060005b8551811015610aad57610a9a600154878381518110610a4c577f4e487b7100000000000000000000000000000000000000000000000000000000600052603260045260246000fd5b6020026020010151878481518110610a8d577f4e487b7100000000000000000000000000000000000000000000000000000000600052603260045260246000fd5b6020026020010151610bb3565b8080610aa590611606565b915050610a04565b5060005b8351811015610b67576001826005016000868481518110610afb577f4e487b7100000000000000000000000000000000000000000000000000000000600052603260045260246000fd5b602002602001015173ffffffffffffffffffffffffffffffffffffffff1673ffffffffffffffffffffffffffffffffffffffff16815260200190815260200160002060006101000a81548160ff0219169083151502179055508080610b5f90611606565b915050610ab1565b506001547f194647b0a7eaca32a0867d223a698d74fb9d1a0030cd763e7278cd65e01a9de38888604051610b9c92919061144c565b60405180910390a260015491505095945050505050565b60008060008581526020019081526020016000209050806006016000815480929190610bde90611606565b9190505550604051806080016040528082600601548152602001848152602001838152602001600081525081600301600083600601548152602001908152602001600020600082015181600001556020820151816001019080519060200190610c48929190610c79565b506040820151816002019080519060200190610c65929190610c79565b506060820151816003015590505050505050565b828054610c85906115d4565b90600052602060002090601f016020900481019282610ca75760008555610cee565b82601f10610cc057805160ff1916838001178555610cee565b82800160010185558215610cee579182015b82811115610ced578251825591602001919060010190610cd2565b5b509050610cfb9190610cff565b5090565b5b80821115610d18576000816000905550600101610d00565b5090565b6000610d2f610d2a846114a6565b611475565b90508083825260208201905082856020860282011115610d4e57600080fd5b60005b85811015610d7e5781610d648882610e23565b845260208401935060208301925050600181019050610d51565b5050509392505050565b6000610d9b610d96846114d2565b611475565b9050808382526020820190508260005b85811015610ddb5781358501610dc18882610e8c565b845260208401935060208301925050600181019050610dab565b5050509392505050565b6000610df8610df3846114fe565b611475565b905082815260208101848484011115610e1057600080fd5b610e1b848285611592565b509392505050565b600081359050610e32816116ed565b92915050565b600082601f830112610e4957600080fd5b8135610e59848260208601610d1c565b91505092915050565b600082601f830112610e7357600080fd5b8135610e83848260208601610d88565b91505092915050565b600082601f830112610e9d57600080fd5b8135610ead848260208601610de5565b91505092915050565b600081359050610ec581611704565b92915050565b600060208284031215610edd57600080fd5b6000610eeb84828501610eb6565b91505092915050565b60008060408385031215610f0757600080fd5b6000610f1585828601610eb6565b9250506020610f2685828601610eb6565b9150509250929050565b600080600080600060a08688031215610f4857600080fd5b6000610f5688828901610eb6565b9550506020610f6788828901610eb6565b945050604086013567ffffffffffffffff811115610f8457600080fd5b610f9088828901610e62565b935050606086013567ffffffffffffffff811115610fad57600080fd5b610fb988828901610e62565b925050608086013567ffffffffffffffff811115610fd657600080fd5b610fe288828901610e38565b9150509295509295909350565b610ff88161154a565b82525050565b6110078161155c565b82525050565b60006110188261152e565b6110228185611539565b93506110328185602086016115a1565b61103b816116dc565b840191505092915050565b6000611053601a83611539565b91507f566f74696e6720686173206e6f742073746172746564207965740000000000006000830152602082019050919050565b6000611093601083611539565b91507f566f74696e672068617320656e646564000000000000000000000000000000006000830152602082019050919050565b60006110d3602e83611539565b91507f596f7520617265206e6f74207265676973746572656420746f20766f7465206960008301527f6e20746869732073657373696f6e0000000000000000000000000000000000006020830152604082019050919050565b6000611139600d83611539565b91507f496e76616c6964206461746573000000000000000000000000000000000000006000830152602082019050919050565b6000611179601483611539565b91507f496e76616c69642063616e6469646174652049440000000000000000000000006000830152602082019050919050565b60006111b9602183611539565b91507f43616e6469646174657320616e642070617274696573206d757374206d61746360008301527f68000000000000000000000000000000000000000000000000000000000000006020830152604082019050919050565b600061121f601683611539565b91507f596f75206861766520616c726561647920766f746564000000000000000000006000830152602082019050919050565b61125b81611588565b82525050565b60006020820190506112766000830184610fef565b92915050565b60006080820190506112916000830187610fef565b61129e6020830186611252565b6112ab6040830185611252565b6112b86060830184611252565b95945050505050565b60006020820190506112d66000830184610ffe565b92915050565b600060208201905081810360008301526112f6818461100d565b905092915050565b6000602082019050818103600083015261131781611046565b9050919050565b6000602082019050818103600083015261133781611086565b9050919050565b60006020820190508181036000830152611357816110c6565b9050919050565b600060208201905081810360008301526113778161112c565b9050919050565b600060208201905081810360008301526113978161116c565b9050919050565b600060208201905081810360008301526113b7816111ac565b9050919050565b600060208201905081810360008301526113d781611212565b9050919050565b60006020820190506113f36000830184611252565b92915050565b600060808201905061140e6000830187611252565b8181036020830152611420818661100d565b90508181036040830152611434818561100d565b90506114436060830184611252565b95945050505050565b60006040820190506114616000830185611252565b61146e6020830184611252565b9392505050565b6000604051905081810181811067ffffffffffffffff8211171561149c5761149b6116ad565b5b8060405250919050565b600067ffffffffffffffff8211156114c1576114c06116ad565b5b602082029050602081019050919050565b600067ffffffffffffffff8211156114ed576114ec6116ad565b5b602082029050602081019050919050565b600067ffffffffffffffff821115611519576115186116ad565b5b601f19601f8301169050602081019050919050565b600081519050919050565b600082825260208201905092915050565b600061155582611568565b9050919050565b60008115159050919050565b600073ffffffffffffffffffffffffffffffffffffffff82169050919050565b6000819050919050565b82818337600083830152505050565b60005b838110156115bf5780820151818401526020810190506115a4565b838111156115ce576000848401525b50505050565b600060028204905060018216806115ec57607f821691505b60208210811415611600576115ff61167e565b5b50919050565b600061161182611588565b91507fffffffffffffffffffffffffffffffffffffffffffffffffffffffffffffffff8214156116445761164361164f565b5b600182019050919050565b7f4e487b7100000000000000000000000000000000000000000000000000000000600052601160045260246000fd5b7f4e487b7100000000000000000000000000000000000000000000000000000000600052602260045260246000fd5b7f4e487b7100000000000000000000000000000000000000000000000000000000600052604160045260246000fd5b6000601f19601f8301169050919050565b6116f68161154a565b811461170157600080fd5b50565b61170d81611588565b811461171857600080fd5b5056fea2646970667358221220746922eeb3de89fd837d20cbf062792347b3c2d806b46e093ea0326e714b825f64736f6c63430008000033",
  "immutableReferences": {},
  "source": "pragma solidity ^0.8.0;\r\n\r\ncontract Voting {\r\n    struct Candidate {\r\n        uint id;\r\n        string name;\r\n        string party;\r\n        uint voteCount;\r\n    }\r\n\r\n    struct VotingSession {\r\n        address admin;\r\n        uint256 votingStart;\r\n        uint256 votingEnd;\r\n        mapping(uint => Candidate) candidates;\r\n        mapping(address => bool) voters;\r\n        mapping(address => bool) registeredVoters;\r\n        uint countCandidates;\r\n    }\r\n\r\n    mapping(uint => VotingSession) public votingSessions;\r\n    uint public sessionCount;\r\n\r\n    event VoteCast(\r\n        address indexed voter,\r\n        uint indexed sessionID,\r\n        uint indexed candidateID\r\n    );\r\n    event ErrorOccurred(string reason);\r\n    event DatesSet(uint indexed sessionID, uint256 startDate, uint256 endDate);\r\n    event VoterRegistered(uint indexed sessionID, address indexed voter);\r\n    event RegistrationRequested(uint indexed sessionID, address indexed voter);\r\n\r\n    function createSession(\r\n        uint256 _startDate,\r\n        uint256 _endDate,\r\n        string[] memory candidateNames,\r\n        string[] memory candidateParties,\r\n        address[] memory voters\r\n    ) public returns (uint) {\r\n        require(\r\n            _endDate > _startDate && _startDate > block.timestamp,\r\n            \"Invalid dates\"\r\n        );\r\n        require(\r\n            candidateNames.length == candidateParties.length,\r\n            \"Candidates and parties must match\"\r\n        );\r\n\r\n        sessionCount++;\r\n        VotingSession storage session = votingSessions[sessionCount];\r\n        session.admin = msg.sender;\r\n        session.votingStart = _startDate;\r\n        session.votingEnd = _endDate;\r\n\r\n        for (uint i = 0; i < candidateNames.length; i++) {\r\n            _addCandidate(sessionCount, candidateNames[i], candidateParties[i]);\r\n        }\r\n        for (uint i = 0; i < voters.length; i++) {\r\n            session.registeredVoters[voters[i]] = true;\r\n        }\r\n\r\n        emit DatesSet(sessionCount, _startDate, _endDate);\r\n        return sessionCount;\r\n    }\r\n\r\n    function _addCandidate(\r\n        uint sessionID,\r\n        string memory name,\r\n        string memory party\r\n    ) internal {\r\n        VotingSession storage session = votingSessions[sessionID];\r\n        session.countCandidates++;\r\n        session.candidates[session.countCandidates] = Candidate(\r\n            session.countCandidates,\r\n            name,\r\n            party,\r\n            0\r\n        );\r\n    }\r\n\r\n    function vote(uint sessionID, uint candidateID) public {\r\n        VotingSession storage session = votingSessions[sessionID];\r\n\r\n        require(\r\n            session.votingStart < block.timestamp,\r\n            \"Voting has not started yet\"\r\n        );\r\n        require(session.votingEnd > block.timestamp, \"Voting has ended\");\r\n        require(\r\n            session.registeredVoters[msg.sender],\r\n            \"You are not registered to vote in this session\"\r\n        );\r\n        require(\r\n            candidateID > 0 && candidateID <= session.countCandidates,\r\n            \"Invalid candidate ID\"\r\n        );\r\n        require(!session.voters[msg.sender], \"You have already voted\");\r\n\r\n        session.voters[msg.sender] = true;\r\n        session.candidates[candidateID].voteCount++;\r\n        emit VoteCast(msg.sender, sessionID, candidateID);\r\n    }\r\n\r\n    function checkVote(uint sessionID) public view returns (bool) {\r\n        return votingSessions[sessionID].voters[msg.sender];\r\n    }\r\n\r\n    function getCountCandidates(uint sessionID) public view returns (uint) {\r\n        return votingSessions[sessionID].countCandidates;\r\n    }\r\n\r\n    function getCandidate(\r\n        uint sessionID,\r\n        uint candidateID\r\n    ) public view returns (uint, string memory, string memory, uint) {\r\n        Candidate storage candidate = votingSessions[sessionID].candidates[\r\n            candidateID\r\n        ];\r\n        return (\r\n            candidate.id,\r\n            candidate.name,\r\n            candidate.party,\r\n            candidate.voteCount\r\n        );\r\n    }\r\n\r\n    function getDates(uint sessionID) public view returns (uint256, uint256) {\r\n        VotingSession storage session = votingSessions[sessionID];\r\n        return (session.votingStart, session.votingEnd);\r\n    }\r\n\r\n    function getCondition(uint sessionID) public view returns (string memory) {\r\n        VotingSession storage session = votingSessions[sessionID];\r\n        if (block.timestamp < session.votingStart) {\r\n            return \"Hasn't started\";\r\n        } else if (block.timestamp > session.votingEnd) {\r\n            return \"Has ended\";\r\n        } else {\r\n            return \"In process\";\r\n        }\r\n    }\r\n\r\n    function getAdmin(uint sessionID) public view returns (address) {\r\n        return votingSessions[sessionID].admin;\r\n    }\r\n}\r\n",
  "sourcePath": "C:\\Users\\user\\OneDrive\\1\\my-dapp\\contracts\\Voting.sol",
  "compiler": {
    "name": "solc",
    "version": "0.8.0+commit.c7dfd78e.Emscripten.clang"
  },
  "schemaVersion": "3.4.16",
  "updatedAt": "2024-06-02T18:29:51.349Z",
  "networkType": "ethereum",
  "devdoc": {
    "kind": "dev",
    "methods": {},
    "version": 1
  },
  "userdoc": {
    "kind": "user",
    "methods": {},
    "version": 1
  }
}